:100000000C941D040C9427040C9427040C942704CE
:100010000C9427040C9427040C9427040C942704B4
:100020000C9427040C9427040C9427040C942704A4
:100030000C9427040C9427040C9427040C94270494
:100040000C9427040C9427040C9427040C94270484
:100050000C9427040C9427040C9427040C94270474
:100060000C9427040C9427040C9427040C94270464
:100070000C9427040C9427040C9427040000C0005F
:1000800000000008140E800000005F0080000244A1
:100090007604800007185F00800001548D08A101DC
:1000A0005D00800007BE5D00800007C25D0080002B
:1000B00007C6CC245F00800002585F008000014C1E
:1000C0007604800007CC5F00800001982040A95092
:1000D0005F00800001C80A006464EE045F008000D5
:1000E0000366E8E70A007373EE045F008000047A99
:1000F000E8E00A006767EE045F008000050AE8D9BF
:100100000A006C6CEE045F008000052CE8D20A0047
:100110006969EE045F008000065CE8CB0A006F6F3F
:10012000EE045F008000068AE8C40A007A7AEE03D3
:100130005F00800006D24C04800007CCE6BA76044B
:10014000800007495F00800001547604800007CCDE
:100150005F00800001545F008000013CE8AAA0C459
:1001600088CC040480809E08A04C8844060C7F7FC5
:100170009E089446A0EC5F008000017AA1745F00A5
:100180008000018A9E0894468D08A101A104A10562
:10019000206C5F00800001D4A0C9E70CA970206C1E
:1001A0005F00800001D4E705B30500048141B5502C
:1001B000E8F58D8394649E08CC0D5F0080000258A2
:1001C000CC0A5E0880000258CC205E0880000258ED
:1001D0009448208C84CC9E065F0080000258A99031
:1001E000E8F8060C0F0F000C30300A0C3A3AE172B6
:1001F000000C0707E86FA0C4B2C100FC5F008000DC
:100200000166A04CE8EEA145A04C5F008000017A99
:10021000A0DCE8F191E494485F008000026C0A0CD5
:100220000A0AE6FA0A0C0D0DE6065F008000025885
:100230002E8CA990E8F15F008000013C0C85000045
:1002400095E49E0820480A0820209E0EA950E8FA4E
:100250000A0C3030E1180A0C3939EA03020C30304C
:100260009E080A0C4141E10F0A0C4646EA03020CC3
:1002700037379E080A0C6161E1060A0C6666EA03DC
:10028000020C57579E088D819E0894468888206CE2
:100290005F00800001D49E07A0C8A970206C5F0099
:1002A000800001D49E07B282B28280C8A970946493
:1002B0009E0889005F008000020E9E07A080E8E58E
:1002C000210200162103000514048000074E3A4263
:1002D00002309E08210100053C1806080404E6FCD3
:1002E000210100073E1C9E08210100057B093C18E6
:1002F00006080101E6FB210100073C1C9E083A8428
:10030000002FA687EEFC3A84002FA686E6FCC801E3
:100310003A860023C8EF3A86002F9E083A84002FC1
:10032000A687EEFC3A84002FA686E6FCC8013A8632
:1003300000253AB600273A3600293AA6002B0602D5
:100340000F0F040240403A26002DC8203A86002FA5
:100350003A84002FA683E6FC3A84002FA687EEFCA1
:100360003A84002F3A8400212E48A9503A84002F65
:10037000A683EEF83A84002F9E083A84002FA687C1
:10038000EEFC3A84002FA686E6FCC8013A860025DA
:1003900088883AB600273A3600293AA6002B06028A
:1003A0000F0F040240403A26002DC8303A86002F35
:1003B0003A84002FA683E6FC3A84002FA687EEFC41
:1003C0003A84002F20483A860021A9503A84002F11
:1003D000A683EEF83A84002FA687EEFC3A84002F1D
:1003E0009E080C44E6145F008000010A9E075D0031
:1003F000800007BE5F00800001C80C44E6085F0073
:100400008000010A94065404800007BEE8075404E3
:10041000800007BE8D68210700FF96465F008000C0
:1004200003BA1606000000015D06800007BE5F00EB
:100430008000013C9E08944A7604800007645F00B7
:100440008000015494A491E65F00800003E495E6E7
:10045000944A5F008000013C94A49064E2F49E08FA
:10046000944C5F00800000F6CC3A5F008000025898
:100470005F008000014C94C45F008000041ACC3AF5
:100480005F00800002585F008000014C94C45F0050
:10049000800004449E089448CE1094845F0080003D
:1004A00000E2944A20AC5F008000017A5F00800087
:1004B000014C160800000001AAE0EEEF94849E08AB
:1004C0009448CE1094845F00800000E2944A20ACEF
:1004D0000A0C2020E902CC2EE8040A0C7E7EE20100
:1004E000CC2E5F0080000258160800000001AAE030
:1004F000EEE994849E080C44E6075F008000010A40
:100500009E075D00800007C25404800007C25F00A0
:10051000800000F6CC3A5F0080000258540480004E
:1005200007C25F00800000E2944A20AC5F008000B8
:10053000017A5F008000014C7604800007CC5F00E8
:10054000800001985F00800001C88488E60B0A08DB
:100550002D2DE6120A0821219E065F008000020E62
:100560009E072EA85400800007C21600000000015C
:100570005D00800007C2E8C85400800007C2120076
:1005800000000001E8F50C44E6075F008000010A66
:100590009E075D00800007C65404800007C65F0008
:1005A000800000E21F409E084D08800008204D0892
:1005B0008000081C4D088000081E76048000082278
:1005C0005F00800001985F008000055884889E05C8
:1005D0009E06E8F320480A083A3AEE1FA9505F0049
:1005E0008000020EE71AA089A0815F008000023619
:1005F000E714A102800180815F008000020EE70DF8
:1006000080818488E60CAA80E628AA80E640AA8039
:10061000E626AA80E64AAA80E650C8FF9E08944CC7
:10062000A12561048000082056048000081C5F009A
:10063000800000E2944294C45F008000020EE7ED67
:100640002E28010300018081F9095F008000020E5D
:10065000E7E48C128A18EEE1E83D88889E085F0086
:1006600080000236E7DAA1038D285F0080000236A1
:10067000E7D4A1058D4896229622962296229624AA
:100680005F00800000E25D04800007C6E8235F0091
:1006900080000236E7C2A1018D0896009600960000
:1006A00096005D008000081CE8155F00800002369F
:1006B000E7B46F0080000820E80D5F00800002367C
:1006C000E7ACA1025F0080000236E7A7A1035D024C
:1006D000800007C6C8019E080C449E065F0080008B
:1006E000023693E0A1045F008000018ACC3A5F00EB
:1006F0008000025897E03C0C5F008000017A5F00A8
:100700008000013C9E080C449E065F00800002367B
:100710006F00800007CAA1045F008000018ACC3A04
:100720005F00800002587604800007CC5F008000E4
:1007300001985F00800001C884889E065F008000E9
:10074000020E9E076101800007CA3E189E087604CB
:10075000800007AE5F00800001545F0080000282CD
:1007600014020000000014040300000091E491E270
:100770005F00800002A0CC2A5F008000025895E252
:1007800095E401050200A9300B030040EEEF5E087E
:10079000830000001B5B324A1B5B303B30485A38F9
:1007A000303031204D616368696E6520436F646548
:1007B000204D6F6E69746F72205665722E302E3127
:1007C0002E330D0A003F3F3F200009C0044403E0E0
:1007D00005E20B500C250D000E020E0303E105EAA5
:1007E00041646472657373202B30202B31202B32CF
:1007F000202B33202B34202B35202B36202B372059
:100800002B38202B39202B41202B42202B43202B0F
:1008100044202B45202B460D0A000000000000005C
:10082000000000000000000000004C6F61642066C2
:10083000726F6D2043462000000011241FBECFEFD1
:10084000D4E0DEBFCDBF0E9440060C9468070C9434
:100850000000CF93DF9300D000D0CDB7DEB79C83EC
:100860008B838BE290E02BE230E0F9012081206164
:10087000FC0120838BE290E02BE230E0F901208143
:10088000277FFC0120838BE290E02BE230E0F9012E
:1008900020812F7DFC01208381E290E02FEFFC017D
:1008A000208387E290E02FEFFC0120838BE290E031
:1008B0002BE230E0F90120812B7FFC01208382E2D2
:1008C00090E02B81FC01208388E290E02B813C8129
:1008D000232F3327FC0120838BE290E02BE230E0D2
:1008E000F90120812460FC01208381E290E0FC0179
:1008F000108287E290E0FC0110828BE290E02BE214
:1009000030E0F90120812F7BFC01208380E290E020
:10091000FC018081282F30E086E290E0FC0180819C
:10092000882F90E0982F8827820F931F9A838983BE
:100930008BE290E02BE230E0F90120812064FC01A1
:1009400020838BE290E02BE230E0F90120812062ED
:10095000FC01208389819A810F900F900F900F9056
:10096000DF91CF910895CF93DF9300D01F92CDB741
:10097000DEB79B838A838BE290E02BE230E0F901C3
:1009800020812061FC0120838BE290E02BE230E0AB
:10099000F90120812860FC0120838BE290E02BE2AA
:1009A00030E0F90120812F7DFC01208381E290E07D
:1009B0002FEFFC01208387E290E02FEFFC012083E2
:1009C0008BE290E02BE230E0F90120812B7FFC01EB
:1009D000208382E290E02A81FC01208388E290E07B
:1009E0002A813B81232F3327FC0120838BE290E077
:1009F0002BE230E0F90120812460FC01208381E2B8
:100A000090E0FC01108287E290E0FC0110828BE212
:100A100090E02BE230E0F90120812F7BFC01208364
:100A20008A819B81817099279B838A838A819B819C
:100A3000892B31F080E290E0FC018081898305C040
:100A400086E290E0FC01808189838BE290E02BE2DA
:100A500030E0F90120812064FC0120838BE290E0EA
:100A60002BE230E0F90120812062FC0120838981A2
:100A70000F900F900F90DF91CF910895CF93DF9358
:100A800000D000D0CDB7DEB79A8389837C836B8397
:100A90008BE290E02BE230E0F90120812F7EFC0117
:100AA00020838BE290E02BE230E0F9012081277F68
:100AB000FC0120838BE290E02BE230E0F901208101
:100AC0002F7DFC01208381E290E02FEFFC01208349
:100AD00087E290E02FEFFC0120838BE290E02BE295
:100AE00030E0F90120812B7FFC01208382E290E03D
:100AF0002981FC01208388E290E029813A81232F1B
:100B00003327FC0120838BE290E02BE230E0F901F7
:100B100020812460FC0120838BE290E02BE230E016
:100B2000F90120812F7BFC01208382E290E02B8160
:100B3000FC01208388E290E02B813C81232F332726
:100B4000FC0120838BE290E02BE230E0F901208170
:100B50002064FC0120838BE290E02BE230E0F9017D
:100B600020812062FC01208300000F900F900F90E5
:100B70000F90DF91CF910895CF93DF9300D01F9214
:100B8000CDB7DEB79A8389836B838BE290E02BE24B
:100B900030E0F90120812F7EFC0120838BE290E080
:100BA0002BE230E0F90120812860FC0120838BE2F8
:100BB00090E02BE230E0F90120812F7DFC012083C1
:100BC00081E290E02FEFFC01208387E290E02FEF9D
:100BD000FC0120838BE290E02BE230E0F9012081E0
:100BE0002B7FFC01208382E290E02981FC0120839D
:100BF00088E290E029813A81232F3327FC0120836A
:100C00008BE290E02BE230E0F90120812460FC01CE
:100C100020838BE290E02BE230E0F90120812F7BF2
:100C2000FC01208389819A81817099279A83898325
:100C300089819A81892B31F082E290E02B81FC013D
:100C4000208305C088E290E02B81FC0120838BE2A9
:100C500090E02BE230E0F90120812064FC01208348
:100C60008BE290E02BE230E0F90120812062FC0170
:100C7000208300000F900F900F90DF91CF91089587
:100C8000CF93DF93CDB7DEB72D970FB6F894DEBFC5
:100C90000FBECDBFF89484E290E02BEFFC012083DF
:100CA0008AE290E021E8FC01208381E290E0FC01EF
:100CB000108287E290E0FC01108285E290E025E25C
:100CC00030E0F90120812260FC0120838BE290E07A
:100CD0002BE230E0F90120812062FC0120838BE2CD
:100CE00090E02BE230E0F90120812064FC012083B8
:100CF0008BE290E02BE230E0F90120812460FC01DE
:100D0000208382EB90E0FC01108280EB90E023E4F2
:100D1000FC01208381EB90E029E0FC01208383EB40
:100D200090E0FC01108285E290E025E230E0F901DC
:100D300020812E7FFC0120831A82198206C00000C8
:100D400089819A8101969A83898389819A81811503
:100D50009440ACF385E290E025E230E0F901208197
:100D60002160FC01208385E290E025E230E0F9017A
:100D700020812D7FFC012083000083E290E0FC01B4
:100D80008081882F90E084709927892BB1F384E2C9
:100D900090E02BEFFC0120838AE290E02FEFFC0132
:100DA00020838BE290E02BE230E0F9012081246087
:100DB000FC0120838BE290E02BE230E0F9012081FE
:100DC0002064FC0120838BE290E02BE230E0F9010B
:100DD00020812062FC0120838CE790E09A8789873C
:100DE0008EEB97E09C878B871C821B822EC01E8215
:100DF0001D821BC08B819C8129853A85820F931FA0
:100E0000FC0184918D878B819C816D850E94BC053E
:100E10008B819C810E94B304982F8D85981751F087
:100E20008D819E8101969E838D838D819E81039706
:100E30000CF301C000008D819E81039709F4FFCF60
:100E40008B819C8101969C838B832B813C818B853C
:100E50009C852817390758F281E290E0FC01108246
:100E600087E290E0FC01108284E290E02BEFFC012D
:100E700020838AE290E021E8FC01208385E290E073
:100E800025E230E0F90120812E7FFC01208385E2FC
:100E900090E025E230E0F90120812260FC0120830E
:100EA00018861F8206C000008F819885019698875A
:100EB0008F838F81988581159440ACF385E290E013
:100EC00025E230E0F90120812160FC012083FFCF81
:040ED000F894FFCFC4
:00000001FF
